:1000000027EF58F0F76A180FF66E000EF722000E71
:10001000F86E0900F55012004200F76A2E0FF66ED6
:10002000000EF722000EF86E0900F5501200430092
:10003000F76A440FF66E000EF722000EF86E090004
:10004000F55012004400F76A5A0FF66E000EF722C0
:10005000000EF86E0900F55012004500F76A700FA7
:10006000F66E000EF722000EF86E0900F550120031
:100070004800F76A860FF66E000EF722000EF86E43
:100080000900F55012004C00F76A9C0FF66E000E46
:10009000F722000EF86E0900F55012004100F76AD1
:1000A000B20FF66E000EF722000EF86E0900F55042
:1000B00012003F00F76AC80FF66E000EF722000E1E
:1000C000F86E0900F550120028484C2900005B54D6
:1000D0003A25645D2000542D737461746573206348
:1000E0006F756E7465722072657365740A0D000019
:1000F00053495354454D4120494E494349414C4988
:100100005A41444F202D205A38302D504943205217
:10011000454144590A0D00002A2A2A204D4F444FD8
:100120002050524F544555532053494D554C41543E
:10013000494F4E202A2A2A0A0D00496E74657272B0
:100140007570E7616F207472696767657265642115
:10015000210A0D004E4D492074726967676572650A
:10016000640A0D003E3E3E204E4D492048414E441B
:100170004C4552203C3C3C0A0D004E4D493A205023
:10018000432073616C766F7520254C582C20707558
:100190006C616E646F207061726120303036366839
:1001A0000A0D00003E3E3E20494E544552525550E5
:1001B000542048414E444C4552202D20494D256441
:1001C000203C3C3C0A0D0000494D303A2045786502
:1001D000637574616E646F20636F6D616E646F2010
:1001E000646F2062617272616D656E746F0A0D00DA
:1001F000434F4D414E444F204578656375746164AB
:100200006F3A2030782558286F70636F6465290A2B
:100210000D00494D313A2050756C616E646F20704D
:100220006172612030303338680A0D00494D323A2E
:10023000205665746F7220493D25582C2070756CCE
:10024000616E646F207061726120746162656C61BF
:100250000A0D0000494D323A205665746F724144D0
:10026000445220254C58202D3E205665746F724212
:1002700059544520254C58202D3E2050433D254CB7
:10028000580D0A00525354202558680A0D004D6F2E
:10029000646F20646520696E746572727570E761C1
:1002A0006F2073657461646F207061726120494DC5
:1002B00025640A0D000052455449202D20526574D2
:1002C0006F726E6F20646520696E746572727570EE
:1002D000E7616F0A0D005245544E202D205265747F
:1002E0006F726E6F206465204E4D490A0D004255B5
:1002F000535F5354415455533A00204D5245513D9C
:100300002564000020494F5245513D25640020528C
:10031000443D256400002057523D25640000204DD7
:10032000313D256400002043535F524F4D3D25640D
:1003300000002043535F52414D3D2564000041447D
:1003400044523A254C5820004D454D5F52443A25C1
:100350004C5820004441444F535F52443D2558209F
:1003600000004D454D5F57523A254C583C2D2558BD
:100370002000454E445F4D454D5F57524954453A24
:100380002000494F5F52443A25583D00494F5F5283
:10039000443A53544154555320004441444F535F11
:1003A000494F3D2558200000494F5F57523A255884
:1003B0003C2D25582000494F5F57523A454E442066
:1003C0000000524F4D5F524541443A254C583D2064
:1003D000000052414D5F524541443A254C583D2062
:1003E0000000524F4D5F57484954455F424C4F51B2
:1003F000554541444120000052414D5F57524954F8
:10040000453A254C583D00004645544348204F503E
:10041000434F44453A0057414954203D20254C75EF
:10042000206379636C65730A0D0044415441203D9B
:1004300020307825582C2050433D3078254C582CBE
:1004400020523D307825580A0D0046203D20255881
:10045000202C2041203D2025580A0D0044414120F8
:100460002D3E20413D255820463D25580A00524C3E
:1004700044202D3E20413D25582028484C293D252B
:10048000580A0D00525244202D3E20413D2558204F
:1004900028484C293D25580A0D004C4449202D3E42
:1004A0002042433D254C5820484C3D254C58204483
:1004B000453D254C580A0D004C444952202D3E2004
:1004C0000000436F6D706C65746F0A0D00004C4442
:1004D00044202D3E2042433D254C5820484C3D258C
:1004E0004C582044453D254C580A0D004C4444527C
:1004F000202D3E200000436F6D706C65746F0A0DF7
:100500000000435049202D3E20413D2558202848D9
:100510004C293D25582042433D254C580A0D0000EA
:1005200043504952202D3E200000436F6D706C6592
:10053000746F0A0D0000435044202D3E20413D259C
:10054000582028484C293D25582042433D254C58E9
:100550000D0A000043504452202D3E200000436FFE
:100560006D706C65746F0A0D0000494E44202D3E7D
:1005700020423D25582028484C293D25580A0D0089
:10058000494E4452202D3E200000436F6D706C6533
:10059000746F0A0D00004F555444202D3E20423DFB
:1005A000255820446174613D25580A0D00004F54C0
:1005B0004452202D3E200000436F6D706C65746FB7
:1005C0000A0D00004C4420412C49202D3E20413D85
:1005D000255820493D25580A0D004C4420412C52F5
:1005E000202D3E20413D255820523D25580A0D0022
:1005F0004C4420492C41202D3E20493D2558204186
:100600003D25580A0D004C4420522C41202D3E20FF
:10061000523D255820413D25580D0A004C442028C4
:1006200049582B2564292C25580D0A004C442028B4
:1006300049592B2564292C25580D0A004C44204982
:10064000582C484C202D3E2049583D254C580D0A29
:1006500000004C4420484C2C4958202D3E20484C4A
:100660003D254C580D0A00004C4420412C28495887
:100670002B256429202D3E20413D254C580D0A0094
:100680004C44202849582B2564292C41202D3E20FC
:10069000413D25580D0A00004C442025632C284973
:1006A000582B256429202D3E2025633D25580D0A11
:1006B00000004C44202849582B2564292C25632010
:1006C0002D3E2025633D25580D0A0000494E43204C
:1006D0004958202D3E2049583D254C580D0A000010
:1006E000444543204958202D3E2049583D254C582B
:1006F0000D0A0000494E43204959202D3E204959FA
:100700003D254C580D0A0000444543204959202DF1
:100710003E2049593D254C580D0A000041444420D3
:1007200049582C7070202D3E2049583D254C580DBD
:100730000A004144442049592C7070202D3E204924
:10074000593D254C580D0A00415649534F3A20480F
:100750004C2061706F6E7461207061726120524F25
:100760004D2028254C58292C206F706572616361DB
:100770006F20706F64652066616C6861720A0D009D
:10078000415649534F3A2056616C6F722061706F29
:100790006E7461207061726120524F4D2028254C8B
:1007A00058292C206F7065726163616F20706F64CF
:1007B000652066616C6861720A0D00005342432037
:1007C000484C2C254C58202D3E20484C3D254C585B
:1007D00020463D25580A0D004A52204E5A20746F7B
:1007E0006D61646F3A205043202B3D2025640D0A33
:1007F00000004A52204E5A206E616F20746F6D6166
:10080000646F0D0A00004A52205A20746F6D6164B3
:100810006F3A205043202B3D2025640D0A004A5298
:10082000205A206E616F20746F6D61646F0D0A0035
:100830004A52204E4320746F6D61646F3A205043DA
:10084000202B3D2025640D0A00004A52204E4320F3
:100850006E616F20746F6D61646F0D0A00004A5203
:10086000204320746F6D61646F3A205043202B3D0C
:100870002025640D0A004A522043206E616F2074C7
:100880006F6D61646F0D0A004A502028484C292082
:100890002D3E205043203D20254C580D0A004C444D
:1008A0002053502C484C202D3E205350203D2025D5
:1008B0004C580D0A00004C442028484C292C6E202E
:1008C0002D3E2028484C293D254C582C2076616C23
:1008D00075653D25580D0A00494E432028484C298E
:1008E000202D3E2028484C293D25580D0A0044451E
:1008F000432028484C29202D3E2028484C293D25BE
:10090000580D0A0041444420412C28484C29202DF0
:100910003E20413D2558202B2028484C293D255874
:10092000203D200041444320412C28484C29202DC3
:100930003E20413D2558202B2028484C293D255854
:10094000202B2043593D2575203D20005355422042
:1009500028484C29202D3E20413D2558202D202877
:10096000484C293D2558203D200053424320412C2E
:1009700028484C29202D3E20413D2558202D202857
:10098000484C293D2558202D2043593D2575203DB3
:100990002000414E442028484C29202D3E20413D36
:1009A000255820414E442028484C293D2558203DBB
:1009B0002000584F522028484C29202D3E20413DF0
:1009C000255820584F522028484C293D2558203D75
:1009D00020004F522028484C29202D3E20413D2503
:1009E00058204F522028484C293D2558203D2000B2
:1009F00043502028484C29202D3E20413D25582099
:100A00002D2028484C293D2558203D200000466CCB
:100A10006167733D25580D0A0000444A4E5A3A203A
:100A20006F66667365743D255820504320616E746F
:100A30006573203D20254C582042203D2025580A32
:100A40000D00444A4E5A3A206F66667365743D2520
:100A500058205043203D20254C582042203D202541
:100A6000580A0D00494E20412C28255829202D3E9A
:100A70002000494E2025732C284329202D3E20009C
:100A800056616C6F723D25580D0A00004F55542079
:100A9000282558292C41202D3E20413D25580D0A5E
:100AA00000004F5554202843292C2573202D3E202B
:100AB00025733D25580D0A00494E49202D3E200042
:100AC000423D25582028484C293D25580D0A000054
:100AD000494E4952202D3E200000436F6D706C65D9
:100AE000746F0D0A00004F555449202D3E20000020
:100AF000423D255820446174613D25580D0A00008F
:100B00004F544952202D3E200000436F6D706C659C
:100B1000746F0D0A00002A2A2A20435055204841AC
:100B20004C5445442061742050433D254C5820507E
:100B3000435F52455455524E3D254C58202A2A2A8F
:100B40000D0A0000496E74657272757074732064CA
:100B5000697361626C65640D0A00496E7465727236
:100B60007570747320656E61626C65640D0A0000B7
:100B7000556E6B6E6F776E204544206F70636F64A7
:100B8000653A2025580D0A00524C432028484C292C
:100B9000202D3E2028484C293D25580D0A00524C56
:100BA00043202573202D3E2025733D25580D0A0036
:100BB0005252432028484C29202D3E2028484C29B9
:100BC0003D25580A0D00525243202573202D3E200A
:100BD00025733D25580A0D00524C2028484C2920E9
:100BE0002D3E2028484C293D25580A0D0000524C26
:100BF000202573202D3E2025733D25580A0D000029
:100C000052522028484C29202D3E2028484C293D6E
:100C100025580A0D00005252202573202D3E202514
:100C2000733D25580A0D0000534C412028484C299B
:100C3000202D3E2028484C293D25580A0D00534CB4
:100C400041202573202D3E2025733D25580A0D0097
:100C50005352412028484C29202D3E2028484C2919
:100C60003D25580A0D00535241202573202D3E206A
:100C700025733D25580A0D0053524C2028484C2915
:100C8000202D3E2028484C293D25580A0D0053525E
:100C90004C202573202D3E2025733D25580A0D003C
:100CA0004249542025642C2573202D3E20463D25A5
:100CB000580A0D005345542025642C28484C2920FF
:100CC0002D3E2028484C293D25580A0D000053454B
:100CD000542025642C2573202D3E2025733D255856
:100CE0000A0D00005245532025642C28484C292029
:100CF0002D3E2028484C293D25580A0D000052451C
:100D0000532025642C2573202D3E2025733D255826
:100D10000A0D00004342202558202D204E4F500A36
:100D20000D004C442028254C58292C4958202D3E94
:100D30002049583D254C580A0D004C442049582C58
:100D400028254C5829202D3E2049583D254C580A2D
:100D50000D004C442053502C4958202D3E20535018
:100D60003D254C580A0D0000455820285350292C89
:100D70004958202D3E2049583D254C582028535095
:100D8000293D254C580A0D004A5020284958292051
:100D90002D3E2050433D254C580A0D00444420254B
:100DA00058202D204E4F500A0D004C442028254C31
:100DB00058292C4959202D3E2049593D254C580A87
:100DC0000D004C442049592C28254C5829202D3EF3
:100DD0002049593D254C580A0D004C4420412C28EF
:100DE00049592B256429202D3E20413D25580A0DC7
:100DF00000004C44202849592B2564292C41202DE2
:100E00003E20413D25580A0D00004C4420422C282C
:100E100049592B256429202D3E20423D25580A0D95
:100E200000004C4420432C2849592B256429202DAF
:100E30003E20433D25580A0D00004C4420442C28F8
:100E400049592B256429202D3E20443D25580A0D63
:100E500000004C4420452C2849592B256429202D7D
:100E60003E20453D25580A0D00004C4420482C28C2
:100E700049592B256429202D3E20483D25580A0D2F
:100E800000004C44204C2C2849592B256429202D46
:100E90003E204C3D25580A0D00004C44202849595D
:100EA0002B2564292C42202D3E20423D25580A0D39
:100EB00000004C44202849592B2564292C43202D1F
:100EC0003E20433D25580A0D00004C442028495936
:100ED0002B2564292C44202D3E20443D25580A0D05
:100EE00000004C44202849592B2564292C45202DED
:100EF0003E20453D25580A0D00004C442028495904
:100F00002B2564292C48202D3E20483D25580A0DCC
:100F100000004C44202849592B2564292C4C202DB5
:100F20003E204C3D25580A0D00004C442053502CC7
:100F30004959202D3E2053503D254C580D0A0000A4
:100F4000455820285350292C4959202D3E204959D5
:100F50003D254C5820285350293D254C580A0D005A
:100F60004A502028495929202D3E2050433D254CE8
:100F7000580A0D004644202558202D204E4F500A77
:100F80000D00556E6B6E6F776E206F70636F6465CA
:100F90003A2025582061742050433D254C580A0DB5
:100FA000000050433A254C58204F503A2558200015
:100FB000413A255820463A255820000042433A2518
:100FC00058255820000044453A255825582000004F
:100FD000484C3A2558255820000053503A254C5883
:100FE000200049583A254C582049593A254C582058
:100FF0000000493A255820523A25580020543A25F5
:101000006C7500004D5245512B5244004D524551D4
:101010002B575200494F5245512B52440000494F23
:101020005245512B5752000049444C4500005D0A7F
:101030000D003D3D3D3D3D3D3D3D3D3D3D3D3D3D4D
:101040003D3D3D3D3D3D3D3D3D3D3D3D3D3D3D3DD0
:101050003D3D3D3D3D3D3D3D3D3D3D3D3D3D3D3DC0
:101060003D0A0D005A38302D504943202D20534958
:101070005354454D4120434F4D504C45544F204310
:101080004F4D2054494D494E4720542D53544154FF
:1010900045530A0D0000544F44415320494E5354C8
:1010A0005255434F4553205A3830202B20494E5437
:1010B0004552525550434F4553202B2044454255ED
:1010C00047202B2054494D494E470A0D00004155F9
:1010D000544F523A204D4152434F5320524F4245B4
:1010E00052544F204252414741203C3E20444154FB
:1010F000413A31362F31302F323032350A0D00006F
:101100002A2A2A204D4F444F2050524F54455553C0
:1011100020434F4D20444542554720444F204241F3
:101120005252414D454E544F202A2A2A0A0D0000A2
:101130003D3D3D3D3D3D3D3D3D3D3D3D3D3D3D3DDF
:101140003D3D3D3D3D3D3D3D3D3D3D3D3D3D3D3DCF
:101150003D3D3D3D3D3D3D3D3D3D3D3D3D3D3D0DEF
:101160000A002A2A2A2A2A2A205245534554205363
:1011700045475552414E43412050524F54455553D7
:10118000202A2A2A2A2A2A0A0D002A2A2A2A2A2A30
:101190002048414C54202D205245494E4943494155
:1011A0004E444F2E2E2E202A2A2A2A2A2A0A0D00A1
:1011B000425553524551203D204C4F5720425553E4
:1011C00041434B203D204C4F570D0A00425553528E
:1011D0004551203D20484947482042555341434B03
:1011E000203D20484947480D0A0096948D94080EEA
:1011F000016E00D00000018E10D0019E0301A033CB
:101200000001D8B08D84D8A08D94018C06D0019CAB
:10121000012EF4D700D000008D84160EE96EE92E61
:10122000FED700D0000001BEE8D701BCF0D7120005
:101230000900F55210E0F6CF99F3F7CF9AF3F8CF03
:101240009BF3F5CFA0F3D1DF99C3F6FF9AC3F7FF65
:101250009BC3F8FFEDD7120097968E8697988E88DD
:1012600097928E8297948E849298898896908D809A
:1012700096928D82929A899A969E8D8E97908E8064
:1012800098908F80000E926E936E946EFF0E956E06
:10129000780E966E000E976EFE0E986E256A266A80
:1012A000236A23C022F0246A0301316B306B2F6B59
:1012B0002E6B336BF00EF66E000EF76E000EF86EAE
:1012C0000001B6DF180EF66E010EF76E000EF86E16
:1012D000AFDF3EEF5CF00900F6CF9CF3F7CF9DF354
:1012E000F8CF9EF3F5CFA0F380DF9CC3F6FF9DC33C
:1012F000F7FF9EC3F8FF03019B2F01D002D000012E
:10130000EAD70001120003019CBF11D00F0E006E3E
:101310009B3900160A0E005C03E2300E002602D054
:101320009C51002600C0A0F300015FDF03010F0EF7
:101330009B170A0E9B5D02E2300E02D09C9F9C51CF
:101340009B279BC3A0F3000150DF120003019C6B9D
:10135000936A99C38AFF9C6B9C6B946A9AC38BFFB8
:101360009AC329F099C328F03451995D03E13551AE
:101370009A5D22E03E0EF66E030EF76E000EF86EDA
:10138000050E9B6F0001A7DF9AC39BF3370E030185
:101390009C6F0001B8DF99C39BF3370E03019C6F6C
:1013A0000001B1DF200E0301A06F00011EDF9AC310
:1013B00035F399C334F30301000112000301A15175
:1013C000016AA05D03E2A0C300F00CD0006A080E21
:1013D000A26FA0370036A151005CD8B0006E013674
:1013E000A22FF7D700011200200E03019BA9300E97
:1013F0009C6F9AC300F09AAF08D0001E002A00C06C
:101400009AF32D0E9C6F9B8F9B8101509AC3A0F382
:10141000640EA16F0001D2DF00C09AF3300E0124E8
:1014200003019D6F9AC3A0F30A0EA16F0001C6DFEE
:10143000300E002403019F6F300E01249E6F9CC369
:1014400000F0300E9D5D04E09B839BBF9B8512D016
:101450009CC39DF3200E9C6F300E9E5D04E09B812B
:101460009BBF9B8307D0D8A49B8104E19DC39EF3BF
:10147000200E9D6F9BB505D09BB307D09BB109D0C3
:101480000CD09CC3A0F30001B0DE9DC3A0F300010B
:10149000ACDE9EC3A0F30001A8DE9FC3A0F3000151
:1014A000A4DE1200EE0EF66E020EF76E000EF86E5F
:1014B000BFDE000E2BB0010E0301996FFA0EF66E1F
:1014C000020EF76E000EF86E060E9B6F000103DF32
:1014D00099C39AF3180E03019B6F000185DF000E7C
:1014E0002BB2010E0301996F040EF66E030EF76E18
:1014F000000EF86E070E9B6F0001EDDE99C39AF3A4
:10150000180E03019B6F00016FDF000E2BB4010E5C
:101510000301996F0E0EF66E030EF76E000EF86E55
:10152000040E9B6F0001D7DE99C39AF3180E0301D6
:101530009B6F000159DF000E2BB6010E0301996F5E
:10154000160EF66E030EF76E000EF86E040E9B6F0D
:101550000001C1DE99C39AF3180E03019B6F0001CD
:1015600043DF000E2BB8010E0301996F1E0EF66EBD
:10157000030EF76E000EF86E040E9B6F0001ABDEDB
:1015800099C39AF3180E03019B6F00012DDF2BAA5C
:1015900002D02BBC2CD0000E2BBA010E0301996F88
:1015A000260EF66E030EF76E000EF86E080E9B6F99
:1015B000000191DE99C39AF3180E03019B6F00019D
:1015C00013DF000E2BBC010E0301996F320EF66E75
:1015D000030EF76E000EF86E080E9B6F00017BDEA7
:1015E00099C39AF3180E03019B6F0001FDDE0A0EEA
:1015F0000301A06F0001F9DD0D0E0301A06F0001D2
:10160000F4DD1200FF0E956E97C39AF396C399F31B
:101610009DDE2B902B942B862B8296928D92979207
:101620008E9297948E8496908D80010E276E030182
:1016300097517F0807E32B9A2B8C97968E96979855
:101640008E8806D02B8A2B9C97968E8697988E989C
:10165000020E006E002EFED700D00000480EF66E7F
:10166000030EF76E000EF86E070E9B6F000133DE5F
:1016700097C39BF3370E03019C6F000144DE96C3B2
:101680009BF3370E03019C6F00013DDE200E03012A
:10169000A06F0001AADD06DF12002B802B842B86B1
:1016A0002B882B8A2B8C97928E8296928D82929881
:1016B000898897968E8697988E88FF0E956E276AF2
:1016C000956883CF96F3540EF66E030EF76E000EF8
:1016D000F86E090E03019B6F0001FDDD1EC09BF338
:1016E000370E03019C6F00010EDE200E0301A06F78
:1016F00000017BDDD7DE020E006E002EFED700D08B
:1017000000001200EACF9BF3E9CF9AF3030194396A
:10171000F009966F9627E20F976F320F996F9451E9
:101720000F0B972797279927E90F986F98279827E6
:1017300093390F0B9827992798379937991F99371D
:1017400093510F0B99279637070E956F0A0E98073E
:101750009927FDE397079827FDE396079727FDE371
:1017600095079627FDE3030EEA6E950EE96E070EC8
:101770009A159A9DE926990EE95CD8B49A8DEF5096
:10178000006E08E19ABD06D09AB915D09AB702D07A
:10179000200E03D09A879A99300E0026EACF94F350
:1017A000E9CF93F300C0A0F300011FDD94C3EAFF6B
:1017B00093C3E9FF0301EE509AADDDD7000151EF6D
:1017C0000CF02B9892988998080EF66E040EF76E1E
:1017D000000EF86E2DDD05C097F304C096F312DFFE
:1017E0000301916B906B968A84BA10D091511308C3
:1017F0000DE303E19051870809E3A60E006E002E69
:10180000FED70000902BD8B4912BEDD7956883CFED
:1018100092F392C31EF0000140DF97908E90000E6D
:101820001D100301936F976B966F0001EBDE0301B0
:10183000916B906B968A84BA10D0915113080DE386
:1018400003E19051870809E3A60E006E002EFED733
:101850000000902BD8B4912BEDD700011EDF97909C
:101860008E802B8892988988042AD8B4052A010E84
:101870001D247F0B1D6E0301905302E191531DE067
:10188000160EF66E040EF76E000EF86E070E9B6FC6
:10189000000121DD100EE96E91C394F390C393F320
:1018A00031D7200EF66E040EF76E000EF86E090E9C
:1018B00003019B6F00010FDD03012A0EF66E040E7B
:1018C000F76E000EF86E090E9B6F000104DD92C3E7
:1018D0009BF3370E03019C6F000115DD350EF66E8C
:1018E000040EF76E000EF86E070E03019B6F0001E9
:1018F000F2DC05C09BF3370E03019C6F000103DD92
:1019000004C09BF3370E03019C6F0001FCDC3F0E0B
:10191000F66E040EF76E000EF86E060E03019B6F56
:101920000001D9DC1DC09BF3370E03019C6F000141
:10193000EADC0A0E0301A06F000157DC0D0E030163
:10194000A06F000152DC030192C301F000011200FC
:10195000D8B204D0030EEA6E520EE96E006A016A34
:10196000026A036A0301526B536B546B556B5151FE
:1019700050114F114E112CE0200E566FD8904A375F
:101980004B374C374D375237533754375537515102
:10199000555D08E15051545D05E14F51535D02E141
:1019A0004E51525D0FE34E51525F4F51D8A04F3D03
:1019B000535F5051D8A0503D545F5151D8A0513D74
:1019C000555FD8800036013602360336562FD6D7FB
:1019D00052C3EFFF53C3ECFF54C3ECFF55C3ECFFFE
:1019E00000011200E9500301426F3B0E496F9A0E4D
:1019F000486FCA0E476F466B0A0E446FD882030EBB
:101A0000EA6E3E0EE96E41C34DF340C34CF33FC353
:101A10004BF33EC34AF349C351F348C350F347C3A2
:101A20004FF346C34EF3000193DF0150005213E120
:101A300003014451010AD8A402D000010CD0425144
:101A40000CE00F0B445D01E010E242BF0ED042BD3E
:101A500004D0200E03D00301426B300E002600C0DC
:101A6000A0F30001F5EC08F00301D89249C34DF34F
:101A700048C34CF347C34BF346C34AF3516B506B17
:101A80004F6B0A0E4E6F000163DF03C049F302C0C3
:101A900048F301C047F300C046F30301442FAED71B
:101AA0000001B8EF0EF0A20EF66E0F0EF76E000EEC
:101AB000F86E030E03019B6F00010DDC3CC39BF32A
:101AC000370E03019C6F00011EDC3BC39BF3370EF6
:101AD00003019C6F000117DCA80EF66E0F0EF76E67
:101AE000000EF86E040E03019B6F00016BEC09F011
:101AF0003DC39BF3370E03019C6F000104DC200EF5
:101B00000301A06F0001F5EC08F0410E0301A06F86
:101B10000001F5EC08F03A0E0301A06F0001F5ECAE
:101B200008F00CC09BF3370E03019C6F000183EC9F
:101B300009F0B40EF66E0F0EF76E000EF86E030E7F
:101B400003019B6F00016BEC09F00DC09BF3370E96
:101B500003019C6F000183EC09F0200E0301A06FCC
:101B60000001F5EC08F0BC0EF66E0F0EF76E000EDD
:101B7000F86E030E03019B6F00016BEC09F00EC0C1
:101B80009BF3370E03019C6F000183EC09F00FC03B
:101B90009BF3370E03019C6F000183EC09F0200ECC
:101BA0000301A06F0001F5EC08F0C60EF66E0F0EF3
:101BB000F76E000EF86E030E03019B6F00016BECD5
:101BC00009F010C09BF3370E03019C6F000183ECFA
:101BD00009F011C09BF3370E03019C6F000183ECE9
:101BE00009F0200E0301A06F0001F5EC08F0D00E03
:101BF000F66E0F0EF76E000EF86E030E03019B6F6C
:101C000000016BEC09F012C09BF3370E03019C6FCF
:101C1000000183EC09F013C09BF3370E03019C6FA6
:101C2000000183EC09F0200E0301A06F0001F5EC28
:101C300008F0DA0EF66E0F0EF76E000EF86E030E59
:101C400003019B6F00016BEC09F007C09BF3370E9B
:101C500003019C6F000183EC09F006C09BF3370E73
:101C600003019C6F000183EC09F0200E0301A06FBB
:101C70000001F5EC08F0E20EF66E0F0EF76E000EA6
:101C8000F86E030E03019B6F00016BEC09F009C0B5
:101C90009BF3370E03019C6F000183EC09F008C031
:101CA0009BF3370E03019C6F000183EC09F0E80EF3
:101CB000F66E0F0EF76E000EF86E040E03019B6FAA
:101CC00000016BEC09F00BC09BF3370E03019C6F16
:101CD000000183EC09F00AC09BF3370E03019C6FEF
:101CE000000183EC09F0200E0301A06F0001F5EC68
:101CF00008F0490E0301A06F0001F5EC08F03A0E60
:101D00000301A06F0001F5EC08F01CC09BF3370E37
:101D100003019C6F000183EC09F0F60EF66E0F0EC6
:101D2000F76E000EF86E030E03019B6F00016BEC63
:101D300009F01DC09BF3370E03019C6F000183EC7B
:101D400009F0FC0EF66E0F0EF76E000EF86E030E25
:101D500003019B6F00016BEC09F0410EE96E31C38A
:101D600041F330C340F32FC33FF32EC33EF33AD6C3
:101D7000200E0301A06F0001F5EC08F05B0E0301DB
:101D8000A06F0001F5EC08F02750010A07E0030AF4
:101D90000EE0010A15E0070A1CE024D0040EF66EDE
:101DA000100EF76E000EF86E18EC09F023D00C0E32
:101DB000F66E100EF76E000EF86E18EC09F01AD0E1
:101DC000140EF66E100EF76E000EF86E18EC09F099
:101DD00011D01E0EF66E100EF76E000EF86E18EC97
:101DE00009F008D0280EF66E100EF76E000EF86E91
:101DF00018EC09F05D0E0301A06F0001F5EC08F08E
:101E0000200E0301A06F0001F5EC08F05B0E03014A
:101E1000A06F0001F5EC08F00DAE07D0530E0301E2
:101E2000A06F0001F5EC08F006D0200E0301A06FB2
:101E30000001F5EC08F00DAC07D05A0E0301A06FBD
:101E40000001F5EC08F006D0200E0301A06F0001A0
:101E5000F5EC08F00DA807D0480E0301A06F0001B3
:101E6000F5EC08F006D0200E0301A06F0001F5ECA0
:101E700008F00DA407D0500E0301A06F0001F5EC8F
:101E800008F006D0200E0301A06F0001F5EC08F069
:101E90000DA207D04E0E0301A06F0001F5EC08F073
:101EA00006D0200E0301A06F0001F5EC08F00DA094
:101EB00007D0430E0301A06F0001F5EC08F006D037
:101EC000200E0301A06F0001F5EC08F02E0EF66E57
:101ED000100EF76E000EF86E18EC09F083EF5CF050
:101EE000000E956E956A98C38CFF97C39AF396C3BC
:101EF00099F3A6EC09F02B902B842B962B822B8A3E
:101F00002B9C96928D9297948E9497928E82969017
:101F10008D8097968E8697988E98020E276E98C31E
:101F20002AF0020E006E002EFED700D00000620ED6
:101F3000F66E030EF76E000EF86E070E03019B6F30
:101F400000016BEC09F097C39BF3370E03019C6F04
:101F5000000183EC09F096C39BF3370E03019C6FDD
:101F6000000183EC09F03C0E0301A06F0001F5ECC9
:101F700008F02D0E0301A06F0001F5EC08F098C3E6
:101F80009BF3370E03019C6F000183EC09F0200ED8
:101F90000301A06F0001F5EC08F052EC0AF026EF07
:101FA00010F02B802B862B8C97948E8496928D82AA
:101FB00097988E88FF0E956E276A020E006E002E8F
:101FC000FED700D00000720EF66E030EF76E000E04
:101FD000F86E18EC09F052EC0AF027EF10F003014C
:101FE00094517F080BE3E20EF66E030EF76E000EBF
:101FF000F86E000118EC09F022D00301F80EF66E1D
:10200000030EF76E000EF86E0A0E9B6F00016BEC6C
:1020100009F094C39BF3370E03019C6F000183EC1E
:1020200009F093C39BF3370E03019C6F000183EC0F
:1020300009F03D0E0301A06F0001F5EC08F094C318
:1020400097F393C396F395C398F34AD7AAD7120090
:10205000640EF66E010EF76E000EF86E18EC09F0C5
:1020600022C023F0226A0650D8B40706060605C02F
:102070008AF303018B6B8B6B07C094F306C093F359
:1020800005C095F30001ABDF0650D8B4070606067D
:1020900004C08AF303018B6B07C094F306C093F36B
:1020A00004C095F300019BDF056A660E046E7A0E8C
:1020B000F66E010EF76E000EF86E0F0E03019B6FA9
:1020C00000016BEC09F005C09BF3370E03019C6F18
:1020D000000183EC09F004C09BF3370E03019C6FF1
:1020E000000183EC09F08C0EF66E010EF76E000E07
:1020F000F86E160E03019B6F00016BEC09F01CEFEC
:1021000012F0030194517F0829E3C20EF66E030E0C
:10211000F76E000EF86E090E9B6F00016BEC09F074
:1021200094C39BF3370E03019C6F000183EC09F00D
:1021300093C39BF3370E03019C6F000183EC09F0FE
:102140003D0E0301A06F0001F5EC08F0200E030125
:10215000A06F0001F5EC08F028D00301D20EF66E56
:10216000030EF76E000EF86E090E9B6F00016BEC0C
:1021700009F094C39BF3370E03019C6F000183ECBD
:1021800009F093C39BF3370E03019C6F000183ECAE
:1021900009F03D0E0301A06F0001F5EC08F0200EE0
:1021A0000301A06F0001F5EC08F094C397F393C30B
:1021B00096F302EC0BF0956883CF95F34DEC0BF0A2
:1021C000030195C301F000011200A40EF66E010E8A
:1021D000F76E000EF86E1A0E03019B6F00016BEC98
:1021E00009F024C09AF3180E03019B6F0001F4EC70
:1021F00009F0C00EF66E010EF76E000EF86E060EB8
:1022000003019B6F00016BEC09F0236A23C022F0ED
:102210000650D8B40706060605C08EF303018F6B7F
:102220008F6B07C094F306C093F305C095F30001CC
:10223000D6DE0650D8B40706060604C08EF30301A6
:102240008F6B07C094F306C093F304C095F30001AD
:10225000C6DE245005E0010A35E0030A3FE0E4D081
:10226000C80EF66E010EF76E000EF86E18EC09F04F
:1022700098908F90956883CF20F098908F80F00E83
:10228000F66E010EF76E000EF86E150E03019B6FD1
:1022900000016BEC09F020C09BF3370E03019C6F2B
:1022A000000183EC09F0070EF66E020EF76E000EC9
:1022B000F86E0A0E03019B6F00016BEC09F0010E32
:1022C000216EB2D0120EF66E020EF76E000EF86E90
:1022D00018EC09F0056A380E046EA6D02C0EF66EC6
:1022E000020EF76E000EF86E0D0E03019B6F0001DB
:1022F0006BEC09F01CC09BF3370E03019C6F0001CF
:1023000083EC09F03B0EF66E020EF76E000EF86ECF
:10231000170E03019B6F00016BEC09F098908F90F2
:10232000956883CF1FF098908F8003018F6B1CC03E
:102330008EF31CC08FF38E6B8E511F108A6F1CC0E2
:102340008BF38BC394F38AC393F30001DADE0301AA
:102350008D6B01C08CF3010E8A258E6F000E8B21D0
:102360008F6F946F8EC393F30001CBDE000E0301D9
:102370008C138DC305F08CC304F0540EF66E020E60
:10238000F76E000EF86E0F0E9B6F00016BEC09F0FC
:102390008BC39BF3370E03019C6F000183EC09F0A4
:1023A0008AC39BF3370E03019C6F000183EC09F095
:1023B000660EF66E020EF76E000EF86E0E0E03013C
:1023C0009B6F00016BEC09F01FC09BF3370E0301FC
:1023D0009C6F000183EC09F0770EF66E020EF76E2B
:1023E000000EF86E070E03019B6F00016BEC09F005
:1023F00005C09BF3370E03019C6F000183EC09F0CD
:1024000004C09BF3370E03019C6F000183EC09F0BD
:102410000D0E0301A06F0001F5EC08F00A0E030198
:10242000A06F0001F5EC08F023EF12F0265205E052
:10243000225203E0266A0CD606D0255204E022522E
:1024400002E0256AC2D606EF35F003018C51010A7D
:10245000000107E0030A10E0010A19E0070A17E08B
:1024600023D0036A03018B512E0FE96E020E032065
:10247000EA6EEFCF8DF322D0036A03018B512E0F4A
:10248000E96E010E0320EA6EEFCF8DF317D0036AD9
:1024900003018B512E0FE96E000E0320EA6E040E2D
:1024A000EF248D6F0BD00001036A03018B512E0FB7
:1024B000E96E000E0320EA6EEFCF8DF38D51140804
:1024C00002E2050E8D6F8DC301F0000180EF12F066
:1024D00003018B5303E18C5301E10AD08B5302E1DA
:1024E0008C5306E0020E006E002EFED700D00000D6
:1024F000000188EF12F032C38BF333C38CF3A5D7FE
:1025000001C08AF303018C6B8AC38BF30001E0D70F
:1025100003018A512E27000E2F2330233123CE0EA4
:10252000F66E000EF76E000EF86E030E9B6F000144
:102530006BEC09F08AC39AF3180E03019B6F00013C
:10254000F4EC09F05D0E0301A06F0001F5EC08F05A
:10255000200E0301A06F0001F5EC08F02CEF35F020
:10256000DEEF56F08DC303F08CC38EF38DC38FF373
:102570000001E1EC0BF08FC3EAFF8EC3E9FF01C05D
:10258000EFFF8BC303F08AC38EF38BC38FF300017D
:10259000E1EC0BF08FC3EAFF8EC3E9FF01C0EFFF50
:1025A000120003018B6B0E0E8A6F8D6B0F0E8C6FFA
:1025B0000001D8DFDEEF56F003018B6B100E8A6F3F
:1025C0008D6B110E8C6F0001CDDFDEEF56F0030135
:1025D0008B6B120E8A6F8D6B130E8C6F0001C2DF36
:1025E000DEEF56F0E1EC0BF001C08AF3E1EC0BF00A
:1025F00001C08BF303018BC38CF38C6B8C518A115C
:10260000066E8BC307F00001DEEF56F00D6A030182
:102610009253D8B40D8C92BF0D8E936B92C394F3EA
:10262000945306E09451010B9327D8909433F8D734
:102630009351010BD8B40D84000112008BC303F039
:102640008AC38CF38BC38DF30001E1EC0BF08DC3D7
:10265000EAFF8CC3E9FF01C0EFFF8BC303F08AC31D
:10266000E9FF8BC3EAFFEFCF8CF38CC392F3000139
:10267000CDDF120003010EC08CF38C6B8C510F1058
:102680008A6F0EC08BF38BC394F38AC393F300015C
:1026900038DD01C00CF00CC092F3B8DFDEEF56F06D
:1026A000030110C08CF38C6B8C5111108A6F10C019
:1026B0008BF38BC394F38AC393F3000122DD01C033
:1026C0000CF00CC092F3A2DFDEEF56F0030112C053
:1026D0008CF38C6B8C5113108A6F12C08BF38BC3ED
:1026E00094F38AC393F300010CDD01C00CF00CC01D
:1026F00092F38CDFDEEF56F0E1EC0BF003018B6B15
:1027000001C08AF30001E1EC0BF00301000E8A1313
:1027100001508B138BC394F38AC393F30001F1DC54
:1027200001C00CF00CC092F371DFDEEF56F0030134
:102730000EC08CF38C6B8C510F108A6F0EC08BF314
:102740008BC394F38AC393F30CC095F3000147DC69
:10275000DEEF56F0030110C08CF38C6B8C5111101E
:102760008A6F10C08BF38BC394F38AC393F30CC0AE
:1027700095F3000134DCDEEF56F0E1EC0BF00301E1
:102780008B6B01C08AF30001E1EC0BF00301000E3A
:102790008A1301508B138BC394F38AC393F30CC039
:1027A00095F300011CDCDEEF56F0E1EC0BF001C00C
:1027B0008AF3030112C08DF38D6B8D5113108B6F53
:1027C00012C08CF38CC394F38BC393F38AC395F339
:1027D000000105DCB60EF66E080EF76E000EF86E00
:1027E000120E03019B6F00016BEC09F08CC39BF38D
:1027F000370E03019C6F000183EC09F08BC39BF340
:10280000370E03019C6F000183EC09F0CB0EF66ECE
:10281000080EF76E000EF86E080E03019B6F0001A4
:102820006BEC09F08AC39BF3370E03019C6F000128
:1028300083EC09F00D0E0301A06F0001F5EC08F028
:102840000A0E0301A06F0001F5EC08F0DEEF56F070
:10285000030112C08CF38C6B8C5113108A6F12C061
:102860008BF38BC394F38AC393F30CC095F30001ED
:10287000EFEC0FF0DEEF56F00D6A03019551000802
:10288000D8A00D8092510F0B966F93510F0B962588
:102890000F08D8A00D889453D8B40D8C9451800B98
:1028A000006E036A00500310D8A40D8E9251800B65
:1028B000966F9351800B965D08E19451800B966F53
:1028C0009251800B965D01E00D840001120003011E
:1028D0008D510C248E6F8F6B0CC092F38DC393F3CC
:1028E0008FC395F38EC394F30001C6DF8EC30CF043
:1028F00012000CC08DF3EBDFDEEF56F00EC08DF34F
:10290000E6DFDEEF56F00FC08DF3E1DFDEEF56F0CD
:1029100010C08DF3DCDFDEEF56F011C08DF3D7DF92
:10292000DEEF56F012C08DF3D2DFDEEF56F013C0AB
:102930008DF3CDDFDEEF56F0E1EC0BF001C08AF352
:1029400001C08DF3C4DFDEEF56F003018E510C247D
:10295000916F0DA003D0036A010E02D0036A000E2E
:1029600091258F6F000E0320906F0DA002D0010EF5
:1029700001D0000E8E25916F0CC092F3936F90C31F
:1029800095F38FC394F3000177DF8FC30CF012002F
:102990000CC08EF3DADFDEEF56F00EC08EF3D5DF1B
:1029A000DEEF56F00FC08EF3D0DFDEEF56F010C032
:1029B0008EF3CBDFDEEF56F011C08EF3C6DFDEEF15
:1029C00056F012C08EF3C1DFDEEF56F013C08EF367
:1029D000BCDFDEEF56F0E1EC0BF001C08AF301C082
:1029E0008EF3B3DFDEEF56F0020E0D6E030192514F
:1029F0000F0B966F93510F0B965DD8A00D889453D3
:102A0000D8B40D8C9451800B006E036A00500310F3
:102A1000D8A40D8E9251800B966F9351800B965DCA
:102A200008E09451800B966F9251800B965D01E007
:102A30000D840001120003018D510C5C8E6F8F6BB1
:102A40000CC092F38DC393F38FC395F38EC394F3AD
:102A50000001CADF8EC30CF012000CC08DF3EBDF57
:102A6000DEEF56F00EC08DF3E6DFDEEF56F00FC05E
:102A70008DF3E1DFDEEF56F010C08DF3DCDFDEEF2B
:102A800056F011C08DF3D7DFDEEF56F012C08DF394
:102A9000D2DFDEEF56F013C08DF3CDDFDEEF56F060
:102AA000E1EC0BF001C08AF301C08DF3C4DFDEEF6F
:102AB00056F003018E510C5C916F0DA003D0036A98
:102AC000010E02D0036A000E915D8F6F000E035459
:102AD000906F0DA002D0010E01D0000E8E25916FD7
:102AE0000CC092F3936F90C395F38FC394F30001DE
:102AF0007BDF8FC30CF012000CC08EF3DADFDEEF49
:102B000056F00EC08EF3D5DFDEEF56F00FC08EF319
:102B1000D0DFDEEF56F010C08EF3CBDFDEEF56F0E5
:102B200011C08EF3C6DFDEEF56F012C08EF3C1DFA8
:102B3000DEEF56F013C08EF3BCDFDEEF56F0E1ECB3
:102B40000BF001C08AF301C08EF3B3DFDEEF56F065
:102B50000D6A03019053D8B40D8C90BF0D8E916B0C
:102B600090C392F3925306E09251010B9127D890B3
:102B70009233F8D79151010BD8B40D8400011200A3
:102B800003018D510C160CC090F30001E1DF0D889C
:102B900012000CC08DF3F4DFDEEF56F00EC08DF3A3
:102BA000EFDFDEEF56F00FC08DF3EADFDEEF56F019
:102BB00010C08DF3E5DFDEEF56F011C08DF3E0DFDE
:102BC000DEEF56F012C08DF3DBDFDEEF56F013C000
:102BD0008DF3D6DFDEEF56F0E1EC0BF001C08AF3A7
:102BE00001C08DF3CDDFDEEF56F003018D510C12E5
:102BF0000CC090F30001ACDF12000CC08DF3F5DFC8
:102C0000DEEF56F00EC08DF3F0DFDEEF56F00FC0B2
:102C10008DF3EBDFDEEF56F010C08DF3E6DFDEEF75
:102C200056F011C08DF3E1DFDEEF56F012C08DF3E8
:102C3000DCDFDEEF56F013C08DF3D7DFDEEF56F0AA
:102C4000E1EC0BF001C08AF301C08DF3CEDFDEEFC3
:102C500056F003018D510C1A0CC090F3000178DF7F
:102C600012000CC08DF3F5DFDEEF56F00EC08DF3D1
:102C7000F0DFDEEF56F00FC08DF3EBDFDEEF56F046
:102C800010C08DF3E6DFDEEF56F011C08DF3E1DF0B
:102C9000DEEF56F012C08DF3DCDFDEEF56F013C02E
:102CA0008DF3D7DFDEEF56F0E1EC0BF001C08AF3D5
:102CB00001C08DF3CEDFDEEF56F003018D510C5CC9
:102CC0008E6F8F6B0CC092F38DC393F38FC395F30C
:102CD0008EC394F3000188DE12000CC08DF3EDDF8B
:102CE000DEEF56F00EC08DF3E8DFDEEF56F00FC0DA
:102CF0008DF3E3DFDEEF56F010C08DF3DEDFDEEFA5
:102D000056F011C08DF3D9DFDEEF56F012C08DF30F
:102D1000D4DFDEEF56F013C08DF3CFDFDEEF56F0D9
:102D2000E1EC0BF001C08AF301C08DF3C6DFDEEFEA
:102D300056F003018AC3E9FF8BC3EAFFEF2A8BC376
:102D400003F08AC3E9FF8BC3EAFFEFCF8CF38CC398
:102D500092F300015BDC0D90120003018B6B0C0EF3
:102D60008A6F0001E6DFDEEF56F003018B6B0E0E7B
:102D70008A6F0001DEDFDEEF56F003018B6B0F0E72
:102D80008A6F0001D6DFDEEF56F003018B6B100E69
:102D90008A6F0001CEDFDEEF56F003018B6B110E60
:102DA0008A6F0001C6DFDEEF56F003018B6B120E57
:102DB0008A6F0001BEDFDEEF56F003018B6B130E4E
:102DC0008A6F0001B6DFDEEF56F003018AC3E9FF28
:102DD0008BC3EAFFEF068BC303F08AC3E9FF8BC303
:102DE000EAFFEFCF8CF38CC392F300010FDC0D826E
:102DF0000D90120003018B6B0C0E8A6F0001E5DF52
:102E0000DEEF56F003018B6B0E0E8A6F0001DDDFE3
:102E1000DEEF56F003018B6B0F0E8A6F0001D5DFDA
:102E2000DEEF56F003018B6B100E8A6F0001CDDFD1
:102E3000DEEF56F003018B6B110E8A6F0001C5DFC8
:102E4000DEEF56F003018B6B120E8A6F0001BDDFBF
:102E5000DEEF56F003018B6B130E8A6F0001B5DFB6
:102E6000DEEF56F003018AC3E9FF8BC3EAFFEF50A0
:102E7000916B906F916F906B8CC3E9FF8DC3EAFFEC
:102E8000EF5090118E6F91C38FF38E2BD8B48F2B90
:102E90008BC303F08AC3E9FF8BC3EAFF8FC3EFFF45
:102EA0008DC303F08CC3E9FF8DC3EAFF8EC3EFFF30
:102EB0000001120003018B6B0E0E8A6F8D6B0F0EDB
:102EC0008C6F0001CFDFDEEF56F003018B6B100E2D
:102ED0008A6F8D6B110E8C6F0001C4DFDEEF56F030
:102EE00003018B6B120E8A6F8D6B130E8C6F0001BA
:102EF000B9DFDEEF56F0062AD8B4072ADEEF56F027
:102F000003018AC3E9FF8BC3EAFFEF50916B906F17
:102F1000916F906B8CC3E9FF8DC3EAFFEF50901166
:102F20008E6F91C38FF38E51D8B48F078E078BC3EA
:102F300003F08AC3E9FF8BC3EAFF8FC3EFFF8DC3A2
:102F400003F08CC3E9FF8DC3EAFF8EC3EFFF0001DE
:102F5000120003018B6B0E0E8A6F8D6B0F0E8C6F40
:102F60000001CEDFDEEF56F003018B6B100E8A6F8F
:102F70008D6B110E8C6F0001C3DFDEEF56F0030185
:102F80008B6B120E8A6F8D6B130E8C6F0001B8DF86
:102F9000DEEF56F00650D8B407060606DEEF56F010
:102FA0000301996B12C098F312C099F3986B985172
:102FB0001310906F12C091F38EC398F3986B9851D1
:102FC0008F11926F8EC393F392519025946F93510A
:102FD0009121956F966B976BEC0E0D16006A016A46
:102FE0009651010B026E036A005206E1015204E1A0
:102FF000025202E10352D8A40D8090C398F391517C
:103000000F0B996F92C300F093510F0B036E925107
:1030100098270350992399510F08D8A00D8895C37C
:1030200012F094C313F0000112000EC08EF30FC013
:103030008FF3B6DFDEEF56F010C08EF311C08FF3C2
:10304000AFDFDEEF56F012C08EF313C08FF3A8DFB0
:10305000DEEF56F007C08AF303018B6B06C08CF3DA
:103060008D6B07C08EF306C08FF3000199DFDEEF92
:1030700056F00CAE02D0010E01D0000E03018A6F93
:10308000D8900C348B6F8A5302E0010E01D0000EF1
:103090008B110C6E0D50EC0B8A110D6E0001DEEFE2
:1030A00056F00CA002D0010E01D0000E03018A6F71
:1030B000D8900C308B6F8A5302E0800E01D0000E46
:1030C0008B110C6E0D50EC0B8A110D6E0001DEEFB2
:1030D00056F00DA002D0010E01D0000E03018A6F40
:1030E0000CAE02D0010E01D0000E8B6FD8900C34C4
:1030F0008A110C6E0D50EC0B8B110D6E0001DEEF82
:1031000056F00DA002D0800E01D0000E03018A6F90
:103110000CA002D0010E01D0000E8B6FD8900C30A5
:103120008A110C6E0D50EC0B8B110D6E0001DEEF51
:1031300056F0E1EC0BF003018B6B01C08AF3000148
:10314000E1EC0BF00301000E8A1301508B138BC3CB
:1031500005F08AC304F00001DEEF56F0E1EC0BF05D
:1031600001C08AF3036A03018A51E8BE03060424FE
:10317000016E0550032201C004F003C005F00001F8
:10318000DEEF56F0E1EC0BF001C08AF31A0EF66E9A
:103190000A0EF76E000EF86E0D0E03019B6F000114
:1031A0006BEC09F08AC39BF3370E03019C6F00019F
:1031B00083EC09F0290EF66E0A0EF76E000EF86E1B
:1031C0000C0E03019B6F00016BEC09F005C09BF333
:1031D000370E03019C6F000183EC09F004C09BF3E0
:1031E000370E03019C6F000183EC09F0380EF66E78
:1031F0000A0EF76E000EF86E050E03019B6F0001BC
:103200006BEC09F00EC09BF3370E03019C6F0001BD
:1032100083EC09F00A0E0301A06F0001F5EC08F041
:103220000D0E0301A06F0001F5EC08F00E060E5222
:103230000EE0036A03018A51E8BE03060424016E0E
:103240000550032201C004F003C005F00001420E46
:10325000F66E0A0EF76E000EF86E0D0E03019B6FF0
:1032600000016BEC09F08AC39BF3370E03019C6FDE
:10327000000183EC09F0510EF66E0A0EF76E000E97
:10328000F86E060E03019B6F00016BEC09F005C0A0
:103290009BF3370E03019C6F000183EC09F004C01F
:1032A0009BF3370E03019C6F000183EC09F05A0E6B
:1032B000F66E0A0EF76E000EF86E050E03019B6F98
:1032C00000016BEC09F00EC09BF3370E03019C6FFD
:1032D000000183EC09F00A0E0301A06F0001F5EC78
:1032E00008F00D0E0301A06F0001F5EC08F0DEEF11
:1032F00056F0E1EC0BF003018C6B01C08BF3000185
:10330000E1EC0BF0000E03018B138D6B8A51F80F6B
:103310002DE2080F0001BEEF19F003018D6B0DAC1B
:103320008D2B24D00D50400B03018D6F1FD0030156
:103330008D6B0DA08D2B1AD00D50010B03018D6FDD
:1033400015D003018D6B0DA48D2B10D00D50040BE7
:1033500003018D6F0BD003018D6B0DAE8D2B06D04D
:103360000D50800B03018D6F01D003018D5304E0DC
:103370008CC305F08BC304F000011200E824F76A47
:10338000F7369D0FF66E330EF722000EF86EFB6EC9
:103390000A00F550FA6E0800F550F96E1A3324331E
:1033A0002E33383342334C3356336033E1EC0BF079
:1033B00001C08AF30DBC2DD0036A03018A51E8BE17
:1033C00003060424016E0550032201C004F003C06B
:1033D00005F0D80EF66E070EF76E000EF86E140E9E
:1033E0009B6F00016BEC09F08AC39AF3180E03017E
:1033F0009B6F0001F4EC09F00D0E0301A06F0001BA
:10340000F5EC08F00A0E0301A06F0001F5EC08F0DE
:1034100008D0F20EF66E070EF76E000EF86E18EC7E
:1034200009F0DEEF56F0E1EC0BF001C08AF30DACD1
:103430002DD0036A03018A51E8BE03060424016EFD
:103440000550032201C004F003C005F0060EF66E1D
:10345000080EF76E000EF86E130E9B6F00016BECFA
:1034600009F08AC39AF3180E03019B6F0001F4EC74
:1034700009F00D0E0301A06F0001F5EC08F00A0E33
:103480000301A06F0001F5EC08F008D01E0EF66EE7
:10349000080EF76E000EF86E18EC09F0DEEF56F02D
:1034A000E1EC0BF001C08AF30DB02DD0036A0301EB
:1034B0008A51E8BE03060424016E0550032201C0B0
:1034C00004F003C005F0300EF66E080EF76E000E25
:1034D000F86E140E9B6F00016BEC09F08AC39AF32F
:1034E000180E03019B6F0001F4EC09F00D0E0301AF
:1034F000A06F0001F5EC08F00A0E0301A06F0001B7
:10350000F5EC08F008D04A0EF66E080EF76E000EC5
:10351000F86E18EC09F0DEEF56F0E1EC0BF001C0AC
:103520008AF30DA02DD0036A03018A51E8BE030679
:103530000424016E0550032201C004F003C005F00D
:103540005E0EF66E080EF76E000EF86E130E9B6F91
:1035500000016BEC09F08AC39AF3180E03019B6F0C
:103560000001F4EC09F00D0E0301A06F0001F5EC71
:1035700008F00A0E0301A06F0001F5EC08F008D076
:10358000760EF66E080EF76E000EF86E18EC09F067
:10359000DEEF56F0030112C08CF38C6B8C511310CC
:1035A0008A6F12C08BF38BC305F08AC304F0880EB8
:1035B000F66E080EF76E000EF86E100E9B6F00018F
:1035C0006BEC09F08BC39BF3370E03019C6F00017A
:1035D00083EC09F08AC39BF3370E03019C6F000153
:1035E00083EC09F00D0E0301A06F0001F5EC08F06B
:1035F0000A0E0301A06F0001F5EC08F0DEEF56F0B3
:10360000030112C08AF38A6B8A511310066E12C02E
:1036100007F09E0EF66E080EF76E000EF86E110E95
:103620009B6F00016BEC09F007C09BF3370E0301A1
:103630009C6F000183EC09F006C09BF3370E030179
:103640009C6F000183EC09F00D0E0301A06F0001D7
:10365000F5EC08F00A0E0301A06F0001F5EC08F08C
:10366000DEEF56F0E1EC0BF003018B6B01C08AF347
:103670000001E1EC0BF00301000E8A1301508B13E3
:103680000650D8B40706060605C08CF38D6B8D6B0B
:1036900007C094F306C093F305C095F30001EFEC67
:1036A0000FF00650D8B40706060604C08CF30301D9
:1036B0008D6B07C094F306C093F304C095F300012B
:1036C000EFEC0FF08BC305F08AC304F0DEEF56F089
:1036D000E1EC0BF003018C6B01C08BF30001E1EC1A
:1036E0000BF00301000E8B1301508C138D6B8A516C
:1036F000FC0F19E2040F0001BEEF1BF003018D6BFC
:103700000DAC8D2B10D00D50400B03018D6F0BD0E5
:1037100003018D6B0DA08D2B06D00D50010B030105
:103720008D6F01D003018D5327E00650D8B40706F2
:10373000060605C08EF38F6B8F6B07C094F306C02F
:1037400093F305C095F30001EFEC0FF00650D8B4E9
:103750000706060604C08EF303018F6B07C094F3BF
:1037600006C093F304C095F30001EFEC0FF08CC397
:1037700005F08BC304F0030100011200E824F76A8E
:10378000F7369D0FF66E370EF722000EF86EFB6EC1
:103790000A00F550FA6E0800F550F96EFC3606374F
:1037A00010371A3707C094F306C093F381EC10F07A
:1037B00003018D6B01C08CF3062AD8B4072A07C019
:1037C00094F306C093F3000181EC10F00301000EA6
:1037D0008C1301508D13062AD8B4072A8DC305F027
:1037E0008CC304F00001120003018B6B8A51FC0FA3
:1037F00019E2040F000119EF1CF003018B6B0DACF3
:103800008B2B10D00D50400B03018B6F0BD003019D
:103810008B6B0DA08B2B06D00D50010B03018B6F12
:1038200001D003018B5303E00001BCDF0301000161
:103830001200E824F76AF736530FF66E380EF722B7
:10384000000EF86EFB6E0A00F550FA6E0800F55097
:10385000F96EFA3704380E3818380650D8B407060F
:10386000060607C094F306C093F38EC395F3EFECFE
:103870000FF00650D8B40706060607C094F306C03A
:1038800093F38FC395F3EFEC0FF012000CC08EF39F
:103890000DC08FF3E2DFDEEF56F00EC08EF30FC0E7
:1038A0008FF3DBDFDEEF56F010C08EF311C08FF325
:1038B000D4DFDEEF56F012C08EF313C08FF3CDDFEE
:1038C000DEEF56F08DC303F08CC38EF38DC38FF300
:1038D00007C094F306C093F3000181EC10F08FC38E
:1038E000EAFF8EC3E9FF01C0EFFF062AD8B4072A1A
:1038F0008BC303F08AC38EF38BC38FF307C094F39B
:1039000006C093F3000181EC10F08FC3EAFF8EC371
:10391000E9FF01C0EFFF062AD8B4072A120003010D
:103920008B6B0C0E8A6F8D6B0D0E8C6F0001CADFD6
:10393000DEEF56F003018B6B0E0E8A6F8D6B0F0E50
:103940008C6F0001BFDFDEEF56F003018B6B100EB2
:103950008A6F8D6B110E8C6F0001B4DFDEEF56F0B5
:1039600003018B6B120E8A6F8D6B130E8C6F00012F
:10397000A9DFDEEF56F0000E956E956A91C38CFFBD
:1039800003019A6B90C399F30001A6EC09F02B8018
:103990002B842B962B9296908D9097948E94979241
:1039A0008E8296928D82040E276E91C32AF0020EAB
:1039B000006E002EFED700D00000A80EF66E030E9B
:1039C000F76E000EF86E060E03019B6F00016BECA4
:1039D00009F090C39BF3370E03019C6F000183EC49
:1039E00009F03C0E0301A06F0001F5EC08F02D0E6C
:1039F0000301A06F0001F5EC08F091C39BF3370EB3
:103A000003019C6F000183EC09F0200E0301A06FFD
:103A10000001F5EC08F052EC0AF012002B862B8224
:103A200097948E8496908D80FF0E956E276A020E75
:103A3000006E002EFED700D00000B60EF66E030E0C
:103A4000F76E000EF86E18EC09F052EC0AF0120056
:103A5000E1EC0BF001C08AF38AC390F30CC091F340
:103A60008ADF8C0EF66E0A0EF76E000EF86E050EEB
:103A700003019B6F00016BEC09F08AC39BF3370EC7
:103A800003019C6F000183EC09F0930EF66E0A0EA1
:103A9000F76E000EF86E090E03019B6F00016BECD0
:103AA00009F00CC09BF3370E03019C6F000183ECFF
:103AB00009F00D0E0301A06F0001F5EC08F00A0EED
:103AC0000301A06F0001F5EC08F0956A0CC08CFFB3
:103AD000A5DFDEEF56F0FF0E956E03019A6B91C3E2
:103AE00099F30001A6EC09F02B802B942B862B92E6
:103AF00096908D9097928E9297948E8496928D82C6
:103B0000030E276E020E006E002EFED700D00000BE
:103B1000820EF66E030EF76E000EF86E060E0301AF
:103B20009B6F00016BEC09F091C39BF3370E03010F
:103B30009C6F000183EC09F03D0E0301A06F0001B2
:103B4000F5EC08F012008C0EF66E030EF76E000E08
:103B5000F86E18EC09F052EC0AF0956883CF91F3F7
:103B60009A0EF66E030EF76E000EF86E090E030144
:103B70009B6F00016BEC09F091C39BF3370E0301BF
:103B80009C6F000183EC09F0200E0301A06F00017F
:103B9000F5EC08F02B842B8297928E8296908D8084
:103BA000FF0E956E276A020E006E002EFED700D023
:103BB00000001200E1EC0BF001C08AF38AC391F31C
:103BC0008ADF640EF66E0A0EF76E000EF86E060EB1
:103BD00003019B6F00016BEC09F08AC39BF3370E66
:103BE00003019C6F000183EC09F06C0EF66E0A0E67
:103BF000F76E000EF86E050E03019B6F00016BEC73
:103C000009F0956883CF0CF09EDF0CC092F306ECB0
:103C100013F0410E0301A06F0001F5EC08F03D0E1A
:103C20000301A06F0001F5EC08F00CC09BF3370E08
:103C300003019C6F000183EC09F00D0E0301A06FDE
:103C40000001F5EC08F00A0E0301A06F0001F5EC8D
:103C500008F0DEEF56F00C1E120E0D12DEEF56F0DD
:103C60000D50ED0B01090D6EDEEF56F00D50ED0B12
:103C700003018A6F0DA002D0100E01D0010E8A112F
:103C80000D6E0001DEEF56F0030EEA6E8D0EE96E4A
:103C9000EF500EE00C0E016E006A002EFED7012ED2
:103CA000FBD7F70E006E002EFED700D0EF2EF2D716
:103CB000120005C08BF304C08AF3010E045C0301FB
:103CC0008C6F000E05588D6F160EF66E0B0EF76E8C
:103CD000000EF86E150E9B6F00016BEC09F08DC3A2
:103CE0009BF3370E03019C6F000183EC09F08CC33A
:103CF0009BF3370E03019C6F000183EC09F02E0E3D
:103D0000F66E0B0EF76E000EF86E0B0E03019B6F36
:103D100000016BEC09F08BC39BF3370E03019C6F22
:103D2000000183EC09F08AC39BF3370E03019C6FFB
:103D3000000183EC09F03C0EF66E0B0EF76E000EE0
:103D4000F86E060E03019B6F00016BEC09F0929A6E
:103D5000898A020E03018C6FFA0E8D6F000194DFC9
:103D600003018C2FF9D7929A899A020E8C6FFA0E62
:103D70008D6F000189DF03018C2FF9D7968684B6F9
:103D800005D08BC305F08AC304F00BD0968884B8A5
:103D900005D08BC305F08AC304F003D00001D7D748
:103DA00003010001DEEF56F0236A23C022F0440E27
:103DB000F66E0B0EF76E000EF86E18EC09F0DEEFE3
:103DC00056F0010E236E23C022F05A0EF66E0B0E33
:103DD000F76E000EF86E18EC09F0DEEF56F010C02A
:103DE0008AF312C010F08AC312F011C08AF313C014
:103DF00011F08AC313F0DEEF56F00CC08AF314C042
:103E00000CF08AC314F00DC08AF315C00DF08AC3FC
:103E100015F0DEEF56F00EC08AF316C00EF08AC31E
:103E200016F00FC08AF317C00FF08AC317F010C046
:103E30008AF318C010F08AC318F011C08AF319C0B1
:103E400011F08AC319F012C08AF31AC012F08AC3A3
:103E50001AF013C08AF31BC013F08AC31BF0DEEF05
:103E600056F003018A6B0D50010B8B6F4A0EF66EF4
:103E7000040EF76E000EF86E040E9B6F00016BECE3
:103E800009F00DC09BF3370E03019C6F000183EC1A
:103E900009F0500EF66E040EF76E000EF86E070E67
:103EA00003019B6F00016BEC09F00CC09BF3370E14
:103EB00003019C6F000183EC09F00A0E0301A06F5F
:103EC0000001F5EC08F00D0E0301A06F0001F5EC08
:103ED00008F00DB806D00DB208D00C500F0B090831
:103EE00004E2060E03018A1300010DB005D00DA8EF
:103EF00009D00C50980806E3600E03018A13010EE6
:103F00008B6F00010DA205D003018A510C5E04D015
:103F1000000103018A510C260D6A8B53D8A40D8031
:103F20000C52D8B40D8C0CBE0D8E0CC08CF38C3999
:103F3000006E0F0E001600508C1B8C31006E00328C
:103F40003F0E001600508C1BD8908C318C1B8C516E
:103F5000010BD8B40D840D985C0EF66E040EF76E4E
:103F6000000EF86E090E9B6F00016BEC09F00CC09F
:103F70009BF3370E03019C6F000183EC09F0670E81
:103F8000F66E040EF76E000EF86E030E03019B6FC3
:103F900000016BEC09F00DC09BF3370E03019C6F21
:103FA000000183EC09F00A0E0301A06F0001F5EC9B
:103FB00008F0DEEF56F003018BC3E9FF8CC3EAFF84
:103FC0008DC3EFFF8CC303F08BC3E9FF8CC3EAFF03
:103FD000EFCF8EF38EC392F3000106EC13F01200C4
:103FE00003018E6B12C08DF312C08EF38D6B8D5159
:103FF00013108A6F12C08BF38BC394F38AC393F3AD
:10400000000181EC10F001C08CF303018C2B8BC3F9
:1040100094F38AC393F38CC395F30001EFEC0FF094
:104020008CC392F306EC13F00D90D80EF66E080ECA
:10403000F76E000EF86E110E03019B6F00016BEC22
:1040400009F08CC39BF3370E03019C6F000183ECD6
:1040500009F00D0E0301A06F0001F5EC08F00A0E47
:104060000301A06F0001F5EC08F0DEEF56F003014C
:104070008E6B12C08DF312C08EF38D6B8D511310A9
:104080008A6F12C08BF38BC394F38AC393F300013E
:1040900081EC10F001C08CF303018C078BC394F307
:1040A0008AC393F38CC395F30001EFEC0FF08CC33C
:1040B00092F306EC13F00D820D90EE0EF66E080EE4
:1040C000F76E000EF86E110E03019B6F00016BEC92
:1040D00009F08CC39BF3370E03019C6F000183EC46
:1040E00009F00D0E0301A06F0001F5EC08F00A0EB7
:1040F0000301A06F0001F5EC08F0DEEF56F00301BC
:104100008E6B12C08DF312C08EF38D6B8D51131018
:104110008A6F12C08BF38BC394F38AC393F30001AD
:1041200081EC10F001C08CF3040EF66E090EF76EF0
:10413000000EF86E100E03019B6F00016BEC09F08E
:104140000CC09BF3370E03019C6F000183EC09F058
:10415000160EF66E090EF76E000EF86E080E0301CD
:104160009B6F00016BEC09F08CC39BF3370E0301CE
:104170009C6F000183EC09F0200EF66E090EF76EBD
:10418000000EF86E030E03019B6F00016BEC09F04B
:104190008CC38DF367EC14F00CC09BF3370E030156
:1041A0009C6F000183EC09F00D0E0301A06F00016C
:1041B000F5EC08F00A0E0301A06F0001F5EC08F021
:1041C000DEEF56F001508EC3A0F3640E0301A16F21
:1041D0000001DEEC09F000C08EF30150300E08E162
:1041E00003018FA310D08FB70ED08FB9200E04D04B
:1041F00003018F978F998F81012601C0A0F30001E1
:10420000F5EC08F003018EC3A0F30A0EA16F0001C4
:10421000DEEC09F000C08EF30150300E08E103011E
:104220008FB70BD08FA109D08FB9200E00010126C6
:1042300001C0A0F3F5EC08F00301300E8E278EC309
:10424000A0F30001F5EC08F0120003018F6B12C01F
:104250008EF312C08FF38E6B8E5113108A6F12C0C3
:104260008BF38BC394F38AC393F3000181EC10F0BA
:1042700001C08CF30DA002D0010E01D0000E03018D
:104280008D6F240EF66E090EF76E000EF86E100E8E
:104290009B6F00016BEC09F00CC09BF3370E030120
:1042A0009C6F000183EC09F0360EF66E090EF76E76
:1042B000000EF86E080E03019B6F00016BEC09F015
:1042C0008CC39BF3370E03019C6F000183EC09F054
:1042D000400EF66E090EF76E000EF86E060E030124
:1042E0009B6F00016BEC09F08DC38EF31B0E030175
:1042F0008F6F000167DF480EF66E090EF76E000E35
:10430000F86E030E03019B6F00016BEC09F08CC388
:104310008EF3A5EC14F00CC09BF3370E03019C6FD9
:10432000000183EC09F00D0E0301A06F0001F5EC14
:1043300008F00A0E0301A06F0001F5EC08F0DEEFB3
:1043400056F003018E6B12C08DF312C08EF38D6B8D
:104350008D5113108A6F12C08BF38BC394F38AC3F1
:1043600093F3000181EC10F001C08CF34C0EF66E5B
:10437000090EF76E000EF86E0E0E03019B6F000122
:104380006BEC09F00CC09BF3370E03019C6F00012E
:1043900083EC09F05C0EF66E090EF76E000EF86EF7
:1043A000080E03019B6F00016BEC09F08CC39BF3BB
:1043B000370E03019C6F000183EC09F0660EF66E68
:1043C000090EF76E000EF86E030E03019B6F0001DD
:1043D0006BEC09F08CC38DF31BEC15F00CC09BF358
:1043E000370E03019C6F000183EC09F00D0E0301F1
:1043F000A06F0001F5EC08F00A0E0301A06F0001A8
:10440000F5EC08F0DEEF56F003018F6B12C08EF36F
:1044100012C08FF38E6B8E5113108A6F12C08BF304
:104420008BC394F38AC393F3000181EC10F001C0B5
:104430008CF30DA002D0010E01D0000E03018D6F90
:104440006A0EF66E090EF76E000EF86E100E9B6F78
:1044500000016BEC09F00CC09BF3370E03019C6F5D
:10446000000183EC09F07C0EF66E090EF76E000E6B
:10447000F86E080E03019B6F00016BEC09F08CC312
:104480009BF3370E03019C6F000183EC09F0860E4D
:10449000F66E090EF76E000EF86E060E03019B6FA6
:1044A00000016BEC09F08DC38EF31B0E03018F6FBF
:1044B000000188DE8E0EF66E090EF76E000EF86EA5
:1044C000030E03019B6F00016BEC09F08CC38EF3AC
:1044D00059EC15F00CC09BF3370E03019C6F0001E3
:1044E00083EC09F00D0E0301A06F0001F5EC08F05C
:1044F0000A0E0301A06F0001F5EC08F0DEEF56F0A4
:1045000003018E6B12C08DF312C08EF38D6B8D5133
:1045100013108A6F12C08BF38BC394F38AC393F387
:10452000000181EC10F001C08CF3920EF66E090EC2
:10453000F76E000EF86E0E0E03019B6F00016BEC20
:1045400009F00CC09BF3370E03019C6F000183EC54
:1045500009F0A20EF66E090EF76E000EF86E0A0E46
:1045600003019B6F00016BEC09F08CC39BF3370ECA
:1045700003019C6F000183EC09F0AE0EF66E090E8C
:10458000F76E000EF86E030E03019B6F00016BECDB
:1045900009F08CC38DF3C0EC15F00CC09BF3370E03
:1045A00003019C6F000183EC09F00D0E0301A06F65
:1045B0000001F5EC08F00A0E0301A06F0001F5EC14
:1045C00008F0DEEF56F003018E6B12C08DF312C0BF
:1045D0008EF38D6B8D5113108A6F12C08BF38BC3CA
:1045E00094F38AC393F3000181EC10F001C08CF3C3
:1045F000B20EF66E090EF76E000EF86E0E0E030187
:104600009B6F00016BEC09F00CC09BF3370E0301AC
:104610009C6F000183EC09F0C20EF66E090EF76E76
:10462000000EF86E0A0E03019B6F00016BEC09F09F
:104630008CC39BF3370E03019C6F000183EC09F0E0
:10464000CE0EF66E090EF76E000EF86E030E030125
:104650009B6F00016BEC09F08CC38DF329EC16F015
:104660000CC09BF3370E03019C6F000183EC09F033
:104670000D0E0301A06F0001F5EC08F00A0E030116
:10468000A06F0001F5EC08F0DEEF56F003018E6B31
:1046900012C08DF312C08EF38D6B8D5113108A6F83
:1046A00012C08BF38BC394F38AC393F3000181ECA4
:1046B00010F001C08CF3D20EF66E090EF76E000EEC
:1046C000F86E0D0E03019B6F00016BEC09F00CC03E
:1046D0009BF3370E03019C6F000183EC09F0E10EA0
:1046E000F66E090EF76E000EF86E090E03019B6F51
:1046F00000016BEC09F08CC39BF3370E03019C6F38
:10470000000183EC09F0EC0EF66E090EF76E000E58
:10471000F86E030E03019B6F00016BEC09F08CC374
:104720008DF3F5EC15F00CC09BF3370E03019C6F75
:10473000000183EC09F00D0E0301A06F0001F5EC00
:1047400008F00A0E0301A06F0001F5EC08F0DEEF9F
:1047500056F003018E6B12C08DF312C08EF38D6B79
:104760008D5113108A6F12C08BF38BC394F38AC3DD
:1047700093F3000181EC10F001C08CF3F00EF66EA3
:10478000090EF76E000EF86E0D0E03019B6F00010F
:104790006BEC09F00CC09BF3370E03019C6F00011A
:1047A00083EC09F0FF0EF66E090EF76E000EF86E40
:1047B000080E03019B6F00016BEC09F08CC39BF3A7
:1047C000370E03019C6F000183EC09F0090EF66EB1
:1047D0000A0EF76E000EF86E030E03019B6F0001C8
:1047E0006BEC09F08CC38DF35DEC16F00E0EF66EDB
:1047F0000A0EF76E000EF86E060E03019B6F0001A5
:104800006BEC09F00DC09BF3370E03019C6F0001A8
:1048100083EC09F00D0E0301A06F0001F5EC08F028
:104820000A0E0301A06F0001F5EC08F0DEEF56F070
:10483000EF5210E0EACF92F3E9CF91F3EFCFA0F37C
:10484000F5EC08F092C3EAFF91C3E9FFE92AD8B476
:10485000EA2AEED712000FC091F36BEC1DF00301B2
:104860008A510E0812E18B5310E1030EEA6E8C0E92
:10487000E96E000E000102EC00F00A000900F5509C
:10488000EE6E0009FBE18DD003018A510F0812E1A1
:104890008B5310E1030EEA6E8C0EE96E000E0001E0
:1048A0000DEC00F00A000900F550EE6E0009FBE186
:1048B00078D003018A51100812E18B5310E1030EE6
:1048C000EA6E8C0EE96E000E000118EC00F00A0092
:1048D0000900F550EE6E0009FBE163D003018A5137
:1048E000110812E18B5310E1030EEA6E8C0EE96E93
:1048F000000E000123EC00F00A000900F550EE6EF6
:104900000009FBE14ED003018A51120812E18B53DA
:1049100010E1030EEA6E8C0EE96E000E00012EEC23
:1049200000F00A000900F550EE6E0009FBE139D0F5
:1049300003018A51130812E18B5310E1030EEA6E52
:104940008C0EE96E000E000139EC00F00A0009003F
:10495000F550EE6E0009FBE124D003018A510C08EA
:1049600012E18B5310E1030EEA6E8C0EE96E000E1D
:10497000000144EC00F00A000900F550EE6E000959
:10498000FBE10FD00301030EEA6E8C0EE96E000E00
:1049900000014FEC00F00A000900F550EE6E00092E
:1049A000FBE1720EF66E0A0EF76E000EF86E030E45
:1049B00003019B6F00016BEC09F0030EEA6E8C0E95
:1049C000E96E36DF770EF66E0A0EF76E000EF86EA1
:1049D000080E03019B6F00016BEC09F003018AC311
:1049E000E9FF8BC3EAFF956883CFEFFF0001A3ECDB
:1049F0001DF08BC303F08AC3E9FF8BC3EAFFEFCF3F
:104A000091F391C392F3000106EC13F00D50FB0BF0
:104A10000301916F235202E0040E01D0000E9111A8
:104A20000D6E8BC303F08AC3E9FF8BC3EAFFEFCFA0
:104A300091F3800EF66E0A0EF76E000EF86E060EFB
:104A40009B6F00016BEC09F091C39BF3370E0301E0
:104A50009C6F000183EC09F00D0E0301A06F0001B3
:104A6000F5EC08F00A0E0301A06F0001F5EC08F068
:104A700012000FC091F36BEC1DF0B80EF66E0A0E2B
:104A8000F76E000EF86E18EC09F00E06956883CFED
:104A90008AF303018C6B12C08BF312C08CF38B6B07
:104AA00013508B1312C094F38BC393F38AC395F303
:104AB0000001EFEC0FF0132A0EC092F306EC13F096
:104AC000420E0301A06F0001F5EC08F03D0E03015A
:104AD000A06F0001F5EC08F00EC09BF3370E030148
:104AE0009C6F000183EC09F0C40EF66E0A0EF76E9F
:104AF000000EF86E060E03019B6F00016BEC09F0CF
:104B00008AC39BF3370E03019C6F000183EC09F00D
:104B10000D0E0301A06F0001F5EC08F00A0E030171
:104B2000A06F0001F5EC08F0A3EC1DF01AEF40F0C7
:104B3000D00EF66E0A0EF76E000EF86E18EC09F045
:104B40000FC091F36BEC1DF00E06956883CF8AF3CE
:104B500003018C6B12C08BF312C08CF38B6B135060
:104B60008B1312C094F38BC393F38AC395F30001A4
:104B7000EFEC0FF0132AA3EC1DF00E52E1E1DA0E78
:104B8000F66E0A0EF76E000EF86E18EC09F01AEFCA
:104B900040F00FC091F36BEC1DF00E06956883CFCB
:104BA0008AF3000E03018C6B8B6F13508B138CC335
:104BB00094F38BC393F38AC395F30001EFEC0FF0EA
:104BC00013060EC092F306EC13F06A0EF66E050E95
:104BD000F76E000EF86E090E03019B6F00016BEC7F
:104BE00009F00EC09BF3370E03019C6F000183ECAC
:104BF00009F0750EF66E050EF76E000EF86E060ED5
:104C000003019B6F00016BEC09F08AC39BF3370E25
:104C100003019C6F000183EC09F00A0E0301A06FF1
:104C20000001F5EC08F00D0E0301A06F0001F5EC9A
:104C300008F0A3EC1DF01200800EF66E050EF76E64
:104C4000000EF86E18EC09F0A4DF0E52FDE18A0E9A
:104C5000F66E050EF76E000EF86E18EC09F01AEFFE
:104C600040F00FC090F38AC391F3BBEC1CF00E50E0
:104C700003018A5D10E1030EEA6E8B0EE96E000EF1
:104C8000000102EC00F00A000900F550EE6E000988
:104C9000FBE16ED003010F508A5D10E1030EEA6E56
:104CA0008B0EE96E000E00010DEC00F00A00090009
:104CB000F550EE6E0009FBE15BD0030110508A5DF8
:104CC00010E1030EEA6E8B0EE96E000E000118EC87
:104CD00000F00A000900F550EE6E0009FBE148D033
:104CE000030111508A5D10E1030EEA6E8B0EE96E2E
:104CF000000E000123EC00F00A000900F550EE6EF2
:104D00000009FBE135D0030112508A5D10E1030E6A
:104D1000EA6E8B0EE96E000E00012EEC00F00A0028
:104D20000900F550EE6E0009FBE122D0030113509B
:104D30008A5D10E1030EEA6E8B0EE96E000E000133
:104D400039EC00F00A000900F550EE6E0009FBE1B5
:104D50000FD00301030EEA6E8B0EE96E000E000108
:104D600044EC00F00A000900F550EE6E0009FBE18A
:104D7000A20EF66E0A0EF76E000EF86E080E030114
:104D80009B6F00016BEC09F0030EEA6E8B0EE96E6F
:104D90004FDDAC0EF66E0A0EF76E000EF86E040EC6
:104DA00003019B6F00016BEC09F0030EEA6E8B0EA2
:104DB000E96E3EDD3D0E0301A06F0001F5EC08F049
:104DC0008AC39BF3370E03019C6F000183EC09F04B
:104DD0000D0E0301A06F0001F5EC08F00A0E0301AF
:104DE000A06F0001F5EC08F0956A8AC38CFF0EEC09
:104DF0001DF01200E60EF66E0A0EF76E000EF86E4B
:104E000018EC09F00E0603018C6B12C08BF312C074
:104E10008CF38B6B13508B1312C094F38BC393F3EF
:104E2000000181EC10F001C08AF30FC090F38AC337
:104E300091F3BBEC1CF0132A0EC092F306EC13F0B6
:104E4000420E0301A06F0001F5EC08F03D0E0301D6
:104E5000A06F0001F5EC08F00EC09BF3370E0301C4
:104E60009C6F000183EC09F0F40EF66E0A0EF76EEB
:104E7000000EF86E060E03019B6F00016BEC09F04B
:104E80008AC39BF3370E03019C6F000183EC09F08A
:104E90000D0E0301A06F0001F5EC08F00A0E0301EE
:104EA000A06F0001F5EC08F00EEC1DF01AEF40F0D9
:104EB000000EF66E0B0EF76E000EF86E18EC09F091
:104EC0000E0603018C6B12C08BF312C08CF38B6B3C
:104ED00013508B1312C094F38BC393F3000181EC36
:104EE00010F001C08AF30FC090F38AC391F3BBECBA
:104EF0001CF0132A0EEC1DF00E52E2E10A0EF66EC3
:104F00000B0EF76E000EF86E18EC09F01AEF40F079
:104F10000E06000E03018C6B8B6F13508B138CC32A
:104F200094F38BC393F3000181EC10F001C08AF37A
:104F30000FC090F38AC391F3BBEC1CF013060EC0B4
:104F400092F306EC13F0960EF66E050EF76E000E59
:104F5000F86E0A0E03019B6F00016BEC09F00EC0A6
:104F60009BF3370E03019C6F000183EC09F0A20E46
:104F7000F66E050EF76E000EF86E060E03019B6FBF
:104F800000016BEC09F08AC39BF3370E03019C6FA1
:104F9000000183EC09F00A0E0301A06F0001F5EC9B
:104FA00008F00D0E0301A06F0001F5EC08F00EEC07
:104FB0001DF01200AE0EF66E050EF76E000EF86EC6
:104FC00018EC09F0A5DF0E52FDE1B80EF66E050EE5
:104FD000F76E000EF86E18EC09F01AEF40F00CC0F6
:104FE0008AF30C6C0D6A0C52D8B40D8C0CBE0D8E6D
:104FF00003018A518008D8B40D848A53D8A40D8047
:105000008A510F0BD8A40D880D8200011AEF40F0D1
:1050100003018A51030B246E8E0EF66E020EF76E9C
:10502000000EF86E220E9B6F00016BEC09F024C09D
:105030009AF3180E03019B6F0001F4EC09F00A0EBD
:105040000301A06F0001F5EC08F00D0E0301A06F45
:105050000001F5EC08F01200B60EF66E020EF76EC7
:10506000000EF86E18EC09F0D2EC1BF0010E236E66
:1050700023C022F01AEF40F0D60EF66E020EF76E45
:10508000000EF86E18EC09F0D2EC1BF023C022F0F1
:105090001AEF40F01CC00CF0010E0D160C52D8B4E3
:1050A0000D8C0CBE0D8E2352D8A40D84C40EF66E4A
:1050B000050EF76E000EF86E0C0E03019B6F0001DB
:1050C0006BEC09F00CC09BF3370E03019C6F0001E1
:1050D00083EC09F0D20EF66E050EF76E000EF86E38
:1050E000030E03019B6F00016BEC09F01CC09BF3E6
:1050F000370E03019C6F000183EC09F00A0E0301D7
:10510000A06F0001F5EC08F00D0E0301A06F000187
:10511000F5EC08F01AEF40F01DC00CF0010E0D1672
:105120000C52D8B40D8C0CBE0D8E2352D8A40D8415
:10513000DA0EF66E050EF76E000EF86E0C0E030119
:105140009B6F00016BEC09F00CC09BF3370E030161
:105150009C6F000183EC09F0E80EF66E050EF76E09
:10516000000EF86E030E03019B6F00016BEC09F05B
:105170001DC09BF3370E03019C6F000183EC09F007
:105180000A0E0301A06F0001F5EC08F00D0E0301FB
:10519000A06F0001F5EC08F01AEF40F00CC01CF015
:1051A000F00EF66E050EF76E000EF86E0C0E030193
:1051B0009B6F00016BEC09F01CC09BF3370E0301E1
:1051C0009C6F000183EC09F0FE0EF66E050EF76E83
:1051D000000EF86E030E03019B6F00016BEC09F0EB
:1051E0000CC09BF3370E03019C6F000183EC09F0A8
:1051F0000A0E0301A06F0001F5EC08F00D0E03018B
:10520000A06F0001F5EC08F01AEF40F00CC01DF0A3
:10521000060EF66E060EF76E000EF86E0C0E03010B
:105220009B6F00016BEC09F01DC09BF3370E03016F
:105230009C6F000183EC09F0140EF66E060EF76EFB
:10524000000EF86E030E03019B6F00016BEC09F07A
:105250000CC09BF3370E03019C6F000183EC09F037
:105260000D0E0301A06F0001F5EC08F00A0E03011A
:10527000A06F0001F5EC08F01AEF40F00301926B0B
:1052800012C091F312C092F3916B1350911312C09C
:1052900094F391C393F3000181EC10F001C08AF301
:1052A0000301926B10C091F310C092F3916B1150F7
:1052B000911310C094F391C393F38AC395F3000143
:1052C000EFEC0FF00301926B12C091F312C092F356
:1052D000916B915113108B6F12C08CF3926B10C0B5
:1052E00091F310C092F3916B915111108D6F10C01A
:1052F0008EF30EC091F3916B91510F108F6F0EC012
:1053000090F38B2BD8B48C2B8D2BD8B48E2B8F5144
:10531000D8B490078F078CC312F08BC313F08EC3E1
:1053200010F08DC311F090C30EF08FC30FF0E90E93
:105330000D168F5302E19053D8A40D849A0EF66E89
:10534000040EF76E000EF86E0A0E9B6F00016BECF8
:1053500009F090C39BF3370E03019C6F000183ECAF
:1053600009F08FC39BF3370E03019C6F000183ECA0
:1053700009F0A70EF66E040EF76E000EF86E040E1E
:1053800003019B6F00016BEC09F08CC39BF3370E9C
:1053900003019C6F000183EC09F08BC39BF3370E74
:1053A00003019C6F000183EC09F0AE0EF66E040E53
:1053B000F76E000EF86E040E03019B6F00016BEC9C
:1053C00009F08EC39BF3370E03019C6F000183EC41
:1053D00009F08DC39BF3370E03019C6F000183EC32
:1053E00009F00A0E0301A06F0001F5EC08F00D0EA4
:1053F0000301A06F0001F5EC08F01200B80EF66E84
:10540000040EF76E000EF86E18EC09F037DF0E523E
:10541000FDE10F52FBE1C20EF66E040EF76E000EB8
:10542000F86E18EC09F01AEF40F0000E0301926BD1
:10543000916F1350911392C394F391C393F30001AE
:1054400081EC10F001C08AF3000E11100301916F7E
:10545000946B936F8AC395F30001EFEC0FF0000E8D
:10546000131003018B6F8C6B000E11108D6F8E6B00
:10547000000E0F108F6F906B8B51D8B48C078B0779
:105480008D51D8B48E078D078F51D8B490078F07F0
:105490008CC312F08BC313F08EC310F08DC311F0C8
:1054A00090C30EF08FC30FF0E90E0D168F5302E17B
:1054B0009053D8A40D84CE0EF66E040EF76E000E37
:1054C000F86E0A0E9B6F00016BEC09F090C39BF322
:1054D000370E03019C6F000183EC09F08FC39BF32F
:1054E000370E03019C6F000183EC09F0DB0EF66EB2
:1054F000040EF76E000EF86E040E03019B6F0001A0
:105500006BEC09F08CC39BF3370E03019C6F000119
:1055100083EC09F08BC39BF3370E03019C6F0001F2
:1055200083EC09F0E20EF66E040EF76E000EF86ED4
:10553000040E03019B6F00016BEC09F08EC39BF31B
:10554000370E03019C6F000183EC09F08DC39BF3C0
:10555000370E03019C6F000183EC09F00A0E030172
:10556000A06F0001F5EC08F00D0E0301A06F000123
:10557000F5EC08F01200EC0EF66E040EF76E000E5D
:10558000F86E18EC09F051DF0E52FDE10F52FBE10D
:10559000F60EF66E040EF76E000EF86E18EC09F0BB
:1055A0001AEF40F0000E0301926B916F13509113AC
:1055B00092C394F391C393F3000181EC10F001C006
:1055C0008AF303018A510C5C8B6F8C6B000E1310F5
:1055D0008D6F8E6B000E0F108F6F906B8D2BD8B46C
:1055E0008E2B8F51D8B490078F078EC312F08DC3C6
:1055F00013F090C30EF08FC30FF0020E0D6E0C501F
:105600000F0B916F8A510F0B915DD8A00D888B53B2
:10561000D8B40D8C8B51800B006E036A00500310C0
:10562000D8A40D8E8F5302E19053D8A40D84020E9E
:10563000F66E050EF76E000EF86E090E9B6F0001F8
:105640006BEC09F00CC09BF3370E03019C6F00015B
:1056500083EC09F00D0EF66E050EF76E000EF86E77
:10566000060E03019B6F00016BEC09F08AC39BF3EC
:10567000370E03019C6F000183EC09F0150EF66EE6
:10568000050EF76E000EF86E040E03019B6F00010D
:105690006BEC09F090C39BF3370E03019C6F000184
:1056A00083EC09F08FC39BF3370E03019C6F00015D
:1056B00083EC09F00A0E0301A06F0001F5EC08F07D
:1056C0000D0E0301A06F0001F5EC08F01200200E92
:1056D000F66E050EF76E000EF86E18EC09F062DF3C
:1056E0000E5202E10F5202E00DACF9D72A0EF66E0F
:1056F000050EF76E000EF86E18EC09F01AEF40F088
:10570000000E0301926B916F1350911392C394F3A7
:1057100091C393F3000181EC10F001C08AF30301FF
:105720008A510C5C8B6F8C6B000E13108D6F8E6B1F
:10573000000E0F108F6F906B8D51D8B48E078D07B0
:105740008F51D8B490078F078EC312F08DC313F01A
:1057500090C30EF08FC30FF0020E0D6E0C500F0BA6
:10576000916F8A510F0B915DD8A00D888B53D8B4DF
:105770000D8C8B51800B006E036A00500310D8A46F
:105780000D8E8F5302E19053D8A40D84360EF66E21
:10579000050EF76E000EF86E090E9B6F00016BECA4
:1057A00009F00CC09BF3370E03019C6F000183ECE2
:1057B00009F0410EF66E050EF76E000EF86E060E3D
:1057C00003019B6F00016BEC09F08AC39BF3370E5A
:1057D00003019C6F000183EC09F0490EF66E050E83
:1057E000F76E000EF86E040E03019B6F00016BEC68
:1057F00009F090C39BF3370E03019C6F000183EC0B
:1058000009F08FC39BF3370E03019C6F000183ECFB
:1058100009F00D0E0301A06F0001F5EC08F00A0E6F
:105820000301A06F0001F5EC08F01200540EF66EB3
:10583000050EF76E000EF86E18EC09F061DF0E52DF
:1058400002E10F5202E00DACF9D75E0EF66E050EC6
:10585000F76E000EF86E18EC09F01AEF40F0030135
:105860008F6B12C08EF312C08FF38E6B8E5113109C
:105870008A6F12C08BF38BC394F38AC393F3000136
:1058800081EC10F001C08CF38CC38DF30C38030154
:105890008E6FF00E8E178C39006E0F0E00160050B2
:1058A0008E118C6F0C50F00B8E6F8D510F0B8E1173
:1058B0000C6E8BC394F38AC393F38CC395F30001EE
:1058C000EFEC0FF00CC090F3A8EC15F0840EF66E20
:1058D000040EF76E000EF86E090E03019B6F0001B7
:1058E0006BEC09F00CC09BF3370E03019C6F0001B9
:1058F00083EC09F08F0EF66E040EF76E000EF86E54
:10590000060E03019B6F00016BEC09F08CC39BF347
:10591000370E03019C6F000183EC09F00A0E0301AE
:10592000A06F0001F5EC08F00D0E0301A06F00015F
:10593000F5EC08F01AEF40F00301916B12C090F300
:1059400012C091F3906B905113108A6F12C08BF3B9
:105950008BC394F38AC393F3000181EC10F001C070
:105960008CF30C500F0B03018D6F8C398E6F0F0E63
:105970008E178C510F0B8F6F0C50F00B8E110C6E1D
:105980008F39006EF00E001600508D118C6F8BC396
:1059900094F38AC393F38CC395F30001EFEC0FF0FB
:1059A0000CC090F3A8EC15F06E0EF66E040EF76EB8
:1059B000000EF86E090E03019B6F00016BEC09F0FD
:1059C0000CC09BF3370E03019C6F000183EC09F0C0
:1059D000790EF66E040EF76E000EF86E060E0301D9
:1059E0009B6F00016BEC09F08CC39BF3370E030136
:1059F0009C6F000183EC09F00A0E0301A06F000107
:105A0000F5EC08F00D0E0301A06F0001F5EC08F0B5
:105A10001AEF40F003019B6B12C09AF312C09BF384
:105A20009A6B9A5113108D6F12C08EF30DA002D095
:105A3000010E01D0000E8F6F8B518D5D9A6F8C51CE
:105A40008E599B6F8F519A5D906F000E9B59916F8D
:105A5000926B936B8E517F0828E3480EF66E070E0B
:105A6000F76E000EF86E1B0E9B6F00016BEC09F0D9
:105A70008EC39BF3370E03019C6F000183EC09F08A
:105A80008DC39BF3370E03019C6F000183EC09F07B
:105A9000660EF66E070EF76E000EF86E190E030115
:105AA0009B6F00016BEC09F003018C517F082CE324
:105AB0008B5302E18C5328E0800EF66E070EF76ED2
:105AC000000EF86E1E0E9B6F00016BEC09F08CC38C
:105AD0009BF3370E03019C6F000183EC09F08BC32D
